{
  "_format": "hh-sol-artifact-1",
  "contractName": "StakingContract",
  "sourceName": "contracts/StakingContract.sol",
  "abi": [
    {
      "inputs": [],
      "stateMutability": "nonpayable",
      "type": "constructor"
    },
    {
      "anonymous": false,
      "inputs": [
        {
          "indexed": true,
          "internalType": "address",
          "name": "owner",
          "type": "address"
        },
        {
          "indexed": true,
          "internalType": "address",
          "name": "spender",
          "type": "address"
        },
        {
          "indexed": false,
          "internalType": "uint256",
          "name": "value",
          "type": "uint256"
        }
      ],
      "name": "Approval",
      "type": "event"
    },
    {
      "anonymous": false,
      "inputs": [
        {
          "indexed": true,
          "internalType": "address",
          "name": "from",
          "type": "address"
        },
        {
          "indexed": true,
          "internalType": "address",
          "name": "to",
          "type": "address"
        },
        {
          "indexed": false,
          "internalType": "uint256",
          "name": "value",
          "type": "uint256"
        }
      ],
      "name": "Transfer",
      "type": "event"
    },
    {
      "anonymous": false,
      "inputs": [
        {
          "indexed": false,
          "internalType": "uint256",
          "name": "stakingAmount",
          "type": "uint256"
        },
        {
          "indexed": false,
          "internalType": "uint256",
          "name": "totalStakedTime",
          "type": "uint256"
        },
        {
          "indexed": false,
          "internalType": "uint256",
          "name": "EndStakeTime",
          "type": "uint256"
        }
      ],
      "name": "Unstaked",
      "type": "event"
    },
    {
      "anonymous": false,
      "inputs": [
        {
          "indexed": false,
          "internalType": "address",
          "name": "Owner",
          "type": "address"
        },
        {
          "indexed": false,
          "internalType": "uint256",
          "name": "reward",
          "type": "uint256"
        }
      ],
      "name": "claimed",
      "type": "event"
    },
    {
      "anonymous": false,
      "inputs": [
        {
          "indexed": false,
          "internalType": "uint256",
          "name": "stakingAmount",
          "type": "uint256"
        },
        {
          "indexed": false,
          "internalType": "uint256",
          "name": "startStakeTime",
          "type": "uint256"
        }
      ],
      "name": "staked",
      "type": "event"
    },
    {
      "inputs": [
        {
          "internalType": "address",
          "name": "owner",
          "type": "address"
        },
        {
          "internalType": "address",
          "name": "spender",
          "type": "address"
        }
      ],
      "name": "allowance",
      "outputs": [
        {
          "internalType": "uint256",
          "name": "",
          "type": "uint256"
        }
      ],
      "stateMutability": "view",
      "type": "function"
    },
    {
      "inputs": [
        {
          "internalType": "address",
          "name": "spender",
          "type": "address"
        },
        {
          "internalType": "uint256",
          "name": "amount",
          "type": "uint256"
        }
      ],
      "name": "approve",
      "outputs": [
        {
          "internalType": "bool",
          "name": "",
          "type": "bool"
        }
      ],
      "stateMutability": "nonpayable",
      "type": "function"
    },
    {
      "inputs": [
        {
          "internalType": "address",
          "name": "account",
          "type": "address"
        }
      ],
      "name": "balanceOf",
      "outputs": [
        {
          "internalType": "uint256",
          "name": "",
          "type": "uint256"
        }
      ],
      "stateMutability": "view",
      "type": "function"
    },
    {
      "inputs": [],
      "name": "claim",
      "outputs": [],
      "stateMutability": "nonpayable",
      "type": "function"
    },
    {
      "inputs": [],
      "name": "decimals",
      "outputs": [
        {
          "internalType": "uint8",
          "name": "",
          "type": "uint8"
        }
      ],
      "stateMutability": "view",
      "type": "function"
    },
    {
      "inputs": [
        {
          "internalType": "address",
          "name": "spender",
          "type": "address"
        },
        {
          "internalType": "uint256",
          "name": "subtractedValue",
          "type": "uint256"
        }
      ],
      "name": "decreaseAllowance",
      "outputs": [
        {
          "internalType": "bool",
          "name": "",
          "type": "bool"
        }
      ],
      "stateMutability": "nonpayable",
      "type": "function"
    },
    {
      "inputs": [
        {
          "internalType": "address",
          "name": "spender",
          "type": "address"
        },
        {
          "internalType": "uint256",
          "name": "addedValue",
          "type": "uint256"
        }
      ],
      "name": "increaseAllowance",
      "outputs": [
        {
          "internalType": "bool",
          "name": "",
          "type": "bool"
        }
      ],
      "stateMutability": "nonpayable",
      "type": "function"
    },
    {
      "inputs": [
        {
          "internalType": "uint256",
          "name": "amount",
          "type": "uint256"
        }
      ],
      "name": "mint",
      "outputs": [],
      "stateMutability": "nonpayable",
      "type": "function"
    },
    {
      "inputs": [],
      "name": "name",
      "outputs": [
        {
          "internalType": "string",
          "name": "",
          "type": "string"
        }
      ],
      "stateMutability": "view",
      "type": "function"
    },
    {
      "inputs": [
        {
          "internalType": "address",
          "name": "",
          "type": "address"
        }
      ],
      "name": "rewards",
      "outputs": [
        {
          "internalType": "uint256",
          "name": "",
          "type": "uint256"
        }
      ],
      "stateMutability": "view",
      "type": "function"
    },
    {
      "inputs": [
        {
          "internalType": "uint256",
          "name": "_stakingAmount",
          "type": "uint256"
        }
      ],
      "name": "stake",
      "outputs": [],
      "stateMutability": "nonpayable",
      "type": "function"
    },
    {
      "inputs": [
        {
          "internalType": "address",
          "name": "",
          "type": "address"
        }
      ],
      "name": "staker",
      "outputs": [
        {
          "internalType": "uint256",
          "name": "amountStaked",
          "type": "uint256"
        },
        {
          "internalType": "uint256",
          "name": "startTime",
          "type": "uint256"
        }
      ],
      "stateMutability": "view",
      "type": "function"
    },
    {
      "inputs": [],
      "name": "symbol",
      "outputs": [
        {
          "internalType": "string",
          "name": "",
          "type": "string"
        }
      ],
      "stateMutability": "view",
      "type": "function"
    },
    {
      "inputs": [],
      "name": "totalSupply",
      "outputs": [
        {
          "internalType": "uint256",
          "name": "",
          "type": "uint256"
        }
      ],
      "stateMutability": "view",
      "type": "function"
    },
    {
      "inputs": [
        {
          "internalType": "address",
          "name": "to",
          "type": "address"
        },
        {
          "internalType": "uint256",
          "name": "amount",
          "type": "uint256"
        }
      ],
      "name": "transfer",
      "outputs": [
        {
          "internalType": "bool",
          "name": "",
          "type": "bool"
        }
      ],
      "stateMutability": "nonpayable",
      "type": "function"
    },
    {
      "inputs": [
        {
          "internalType": "address",
          "name": "from",
          "type": "address"
        },
        {
          "internalType": "address",
          "name": "to",
          "type": "address"
        },
        {
          "internalType": "uint256",
          "name": "amount",
          "type": "uint256"
        }
      ],
      "name": "transferFrom",
      "outputs": [
        {
          "internalType": "bool",
          "name": "",
          "type": "bool"
        }
      ],
      "stateMutability": "nonpayable",
      "type": "function"
    },
    {
      "inputs": [],
      "name": "unStake",
      "outputs": [],
      "stateMutability": "nonpayable",
      "type": "function"
    }
  ],
  "bytecode": "0x60806040523480156200001157600080fd5b506040518060400160405280600481526020017f6e616d65000000000000000000000000000000000000000000000000000000008152506040518060400160405280600681526020017f73796d626f6c000000000000000000000000000000000000000000000000000081525081600390816200008f919062000324565b508060049081620000a1919062000324565b5050506200040b565b600081519050919050565b7f4e487b7100000000000000000000000000000000000000000000000000000000600052604160045260246000fd5b7f4e487b7100000000000000000000000000000000000000000000000000000000600052602260045260246000fd5b600060028204905060018216806200012c57607f821691505b602082108103620001425762000141620000e4565b5b50919050565b60008190508160005260206000209050919050565b60006020601f8301049050919050565b600082821b905092915050565b600060088302620001ac7fffffffffffffffffffffffffffffffffffffffffffffffffffffffffffffffff826200016d565b620001b886836200016d565b95508019841693508086168417925050509392505050565b6000819050919050565b6000819050919050565b600062000205620001ff620001f984620001d0565b620001da565b620001d0565b9050919050565b6000819050919050565b6200022183620001e4565b6200023962000230826200020c565b8484546200017a565b825550505050565b600090565b6200025062000241565b6200025d81848462000216565b505050565b5b8181101562000285576200027960008262000246565b60018101905062000263565b5050565b601f821115620002d4576200029e8162000148565b620002a9846200015d565b81016020851015620002b9578190505b620002d1620002c8856200015d565b83018262000262565b50505b505050565b600082821c905092915050565b6000620002f960001984600802620002d9565b1980831691505092915050565b6000620003148383620002e6565b9150826002028217905092915050565b6200032f82620000aa565b67ffffffffffffffff8111156200034b576200034a620000b5565b5b62000357825462000113565b6200036482828562000289565b600060209050601f8311600181146200039c576000841562000387578287015190505b62000393858262000306565b86555062000403565b601f198416620003ac8662000148565b60005b82811015620003d657848901518255600182019150602085019450602081019050620003af565b86831015620003f65784890151620003f2601f891682620002e6565b8355505b6001600288020188555050505b505050505050565b61205a806200041b6000396000f3fe608060405234801561001057600080fd5b506004361061010b5760003560e01c806370a08231116100a2578063a0712d6811610071578063a0712d68146102bd578063a457c2d7146102d9578063a694fc3a14610309578063a9059cbb14610325578063dd62ed3e146103555761010b565b806370a082311461023457806373cf575a1461026457806382e4eda41461026e57806395d89b411461029f5761010b565b806323b872dd116100de57806323b872dd146101ac578063313ce567146101dc57806339509351146101fa5780634e71d92d1461022a5761010b565b806306fdde03146101105780630700037d1461012e578063095ea7b31461015e57806318160ddd1461018e575b600080fd5b610118610385565b60405161012591906114ee565b60405180910390f35b61014860048036038101906101439190611573565b610417565b60405161015591906115b9565b60405180910390f35b61017860048036038101906101739190611600565b61042f565b604051610185919061165b565b60405180910390f35b610196610452565b6040516101a391906115b9565b60405180910390f35b6101c660048036038101906101c19190611676565b61045c565b6040516101d3919061165b565b60405180910390f35b6101e461048b565b6040516101f191906116e5565b60405180910390f35b610214600480360381019061020f9190611600565b610494565b604051610221919061165b565b60405180910390f35b6102326104cb565b005b61024e60048036038101906102499190611573565b610623565b60405161025b91906115b9565b60405180910390f35b61026c61066b565b005b61028860048036038101906102839190611573565b6108c4565b604051610296929190611700565b60405180910390f35b6102a76108e8565b6040516102b491906114ee565b60405180910390f35b6102d760048036038101906102d29190611729565b61097a565b005b6102f360048036038101906102ee9190611600565b61099a565b604051610300919061165b565b60405180910390f35b610323600480360381019061031e9190611729565b610a11565b005b61033f600480360381019061033a9190611600565b610bee565b60405161034c919061165b565b60405180910390f35b61036f600480360381019061036a9190611756565b610c11565b60405161037c91906115b9565b60405180910390f35b606060038054610394906117c5565b80601f01602080910402602001604051908101604052809291908181526020018280546103c0906117c5565b801561040d5780601f106103e25761010080835404028352916020019161040d565b820191906000526020600020905b8154815290600101906020018083116103f057829003601f168201915b5050505050905090565b60066020528060005260406000206000915090505481565b60008061043a610c98565b9050610447818585610ca0565b600191505092915050565b6000600254905090565b600080610467610c98565b9050610474858285610e69565b61047f858585610ef5565b60019150509392505050565b60006012905090565b60008061049f610c98565b90506104c08185856104b18589610c11565b6104bb9190611825565b610ca0565b600191505092915050565b6000600660003373ffffffffffffffffffffffffffffffffffffffff1673ffffffffffffffffffffffffffffffffffffffff168152602001908152602001600020541161054d576040517f08c379a0000000000000000000000000000000000000000000000000000000008152600401610544906118a5565b60405180910390fd5b6000600660003373ffffffffffffffffffffffffffffffffffffffff1673ffffffffffffffffffffffffffffffffffffffff168152602001908152602001600020549050600660003373ffffffffffffffffffffffffffffffffffffffff1673ffffffffffffffffffffffffffffffffffffffff168152602001908152602001600020600090556105dd8161116b565b6105e73382611204565b7f4dd6c8de072db5939c4dc757de920d64bcbef063a41150ae51deb4f125032ddf33826040516106189291906118d4565b60405180910390a150565b60008060008373ffffffffffffffffffffffffffffffffffffffff1673ffffffffffffffffffffffffffffffffffffffff168152602001908152602001600020549050919050565b6000600560003373ffffffffffffffffffffffffffffffffffffffff1673ffffffffffffffffffffffffffffffffffffffff16815260200190815260200160002060000154116106f0576040517f08c379a00000000000000000000000000000000000000000000000000000000081526004016106e790611949565b60405180910390fd5b603c600560003373ffffffffffffffffffffffffffffffffffffffff1673ffffffffffffffffffffffffffffffffffffffff16815260200190815260200160002060010154426107409190611969565b11610780576040517f08c379a000000000000000000000000000000000000000000000000000000000815260040161077790611a0f565b60405180910390fd5b6000804290506000600560003373ffffffffffffffffffffffffffffffffffffffff1673ffffffffffffffffffffffffffffffffffffffff16815260200190815260200160002060010154426107d69190611969565b9050600560003373ffffffffffffffffffffffffffffffffffffffff1673ffffffffffffffffffffffffffffffffffffffff168152602001908152602001600020600001549250600560003373ffffffffffffffffffffffffffffffffffffffff1673ffffffffffffffffffffffffffffffffffffffff16815260200190815260200160002060008082016000905560018201600090555050610879838261135a565b610884303385610ef5565b7f6d53ab8a75d9106d01c9ba0ac2e389ffb405989741a1a51c3791492b219fc80d8382846040516108b793929190611a2f565b60405180910390a1505050565b60056020528060005260406000206000915090508060000154908060010154905082565b6060600480546108f7906117c5565b80601f0160208091040260200160405190810160405280929190818152602001828054610923906117c5565b80156109705780601f1061094557610100808354040283529160200191610970565b820191906000526020600020905b81548152906001019060200180831161095357829003601f168201915b5050505050905090565b61099733670de0b6b3a7640000836109929190611a66565b611204565b50565b6000806109a5610c98565b905060006109b38286610c11565b9050838110156109f8576040517f08c379a00000000000000000000000000000000000000000000000000000000081526004016109ef90611b1a565b60405180910390fd5b610a058286868403610ca0565b60019250505092915050565b6000600560003373ffffffffffffffffffffffffffffffffffffffff1673ffffffffffffffffffffffffffffffffffffffff1681526020019081526020016000206001015414610a96576040517f08c379a0000000000000000000000000000000000000000000000000000000008152600401610a8d90611b86565b60405180910390fd5b610a9f33610623565b811115610ae1576040517f08c379a0000000000000000000000000000000000000000000000000000000008152600401610ad890611bf2565b60405180910390fd5b6000670de0b6b3a764000082610af79190611a66565b9050610b04333083610ef5565b604051806040016040528082815260200142815250600560003373ffffffffffffffffffffffffffffffffffffffff1673ffffffffffffffffffffffffffffffffffffffff16815260200190815260200160002060008201518160000155602082015181600101559050507f7c6f5184feee299ae27f4658bc7435af0ef3faef99787740a66b6c87aca9c3a382600560003373ffffffffffffffffffffffffffffffffffffffff1673ffffffffffffffffffffffffffffffffffffffff16815260200190815260200160002060010154604051610be2929190611700565b60405180910390a15050565b600080610bf9610c98565b9050610c06818585610ef5565b600191505092915050565b6000600160008473ffffffffffffffffffffffffffffffffffffffff1673ffffffffffffffffffffffffffffffffffffffff16815260200190815260200160002060008373ffffffffffffffffffffffffffffffffffffffff1673ffffffffffffffffffffffffffffffffffffffff16815260200190815260200160002054905092915050565b600033905090565b600073ffffffffffffffffffffffffffffffffffffffff168373ffffffffffffffffffffffffffffffffffffffff1603610d0f576040517f08c379a0000000000000000000000000000000000000000000000000000000008152600401610d0690611c84565b60405180910390fd5b600073ffffffffffffffffffffffffffffffffffffffff168273ffffffffffffffffffffffffffffffffffffffff1603610d7e576040517f08c379a0000000000000000000000000000000000000000000000000000000008152600401610d7590611d16565b60405180910390fd5b80600160008573ffffffffffffffffffffffffffffffffffffffff1673ffffffffffffffffffffffffffffffffffffffff16815260200190815260200160002060008473ffffffffffffffffffffffffffffffffffffffff1673ffffffffffffffffffffffffffffffffffffffff168152602001908152602001600020819055508173ffffffffffffffffffffffffffffffffffffffff168373ffffffffffffffffffffffffffffffffffffffff167f8c5be1e5ebec7d5bd14f71427d1e84f3dd0314c0f7b2291e5b200ac8c7c3b92583604051610e5c91906115b9565b60405180910390a3505050565b6000610e758484610c11565b90507fffffffffffffffffffffffffffffffffffffffffffffffffffffffffffffffff8114610eef5781811015610ee1576040517f08c379a0000000000000000000000000000000000000000000000000000000008152600401610ed890611d82565b60405180910390fd5b610eee8484848403610ca0565b5b50505050565b600073ffffffffffffffffffffffffffffffffffffffff168373ffffffffffffffffffffffffffffffffffffffff1603610f64576040517f08c379a0000000000000000000000000000000000000000000000000000000008152600401610f5b90611e14565b60405180910390fd5b600073ffffffffffffffffffffffffffffffffffffffff168273ffffffffffffffffffffffffffffffffffffffff1603610fd3576040517f08c379a0000000000000000000000000000000000000000000000000000000008152600401610fca90611ea6565b60405180910390fd5b610fde83838361142b565b60008060008573ffffffffffffffffffffffffffffffffffffffff1673ffffffffffffffffffffffffffffffffffffffff16815260200190815260200160002054905081811015611064576040517f08c379a000000000000000000000000000000000000000000000000000000000815260040161105b90611f38565b60405180910390fd5b8181036000808673ffffffffffffffffffffffffffffffffffffffff1673ffffffffffffffffffffffffffffffffffffffff16815260200190815260200160002081905550816000808573ffffffffffffffffffffffffffffffffffffffff1673ffffffffffffffffffffffffffffffffffffffff168152602001908152602001600020600082825401925050819055508273ffffffffffffffffffffffffffffffffffffffff168473ffffffffffffffffffffffffffffffffffffffff167fddf252ad1be2c89b69c2b068fc378daa952ba7f163c4a11628f55a4df523b3ef8460405161115291906115b9565b60405180910390a3611165848484611430565b50505050565b6112018160405160240161117f91906115b9565b6040516020818303038152906040527ff82c50f1000000000000000000000000000000000000000000000000000000007bffffffffffffffffffffffffffffffffffffffffffffffffffffffff19166020820180517bffffffffffffffffffffffffffffffffffffffffffffffffffffffff8381831617835250505050611435565b50565b600073ffffffffffffffffffffffffffffffffffffffff168273ffffffffffffffffffffffffffffffffffffffff1603611273576040517f08c379a000000000000000000000000000000000000000000000000000000000815260040161126a90611fa4565b60405180910390fd5b61127f6000838361142b565b80600260008282546112919190611825565b92505081905550806000808473ffffffffffffffffffffffffffffffffffffffff1673ffffffffffffffffffffffffffffffffffffffff168152602001908152602001600020600082825401925050819055508173ffffffffffffffffffffffffffffffffffffffff16600073ffffffffffffffffffffffffffffffffffffffff167fddf252ad1be2c89b69c2b068fc378daa952ba7f163c4a11628f55a4df523b3ef8360405161134291906115b9565b60405180910390a361135660008383611430565b5050565b600081663b548fbfbfc00061136f9190611a66565b9050612a308211156113e157600060648461138a9190611ff3565b905081816113989190611825565b600660003373ffffffffffffffffffffffffffffffffffffffff1673ffffffffffffffffffffffffffffffffffffffff1681526020019081526020016000208190555050611426565b80600660003373ffffffffffffffffffffffffffffffffffffffff1673ffffffffffffffffffffffffffffffffffffffff168152602001908152602001600020819055505b505050565b505050565b505050565b60008151905060006a636f6e736f6c652e6c6f679050602083016000808483855afa5050505050565b600081519050919050565b600082825260208201905092915050565b60005b8381101561149857808201518184015260208101905061147d565b60008484015250505050565b6000601f19601f8301169050919050565b60006114c08261145e565b6114ca8185611469565b93506114da81856020860161147a565b6114e3816114a4565b840191505092915050565b6000602082019050818103600083015261150881846114b5565b905092915050565b600080fd5b600073ffffffffffffffffffffffffffffffffffffffff82169050919050565b600061154082611515565b9050919050565b61155081611535565b811461155b57600080fd5b50565b60008135905061156d81611547565b92915050565b60006020828403121561158957611588611510565b5b60006115978482850161155e565b91505092915050565b6000819050919050565b6115b3816115a0565b82525050565b60006020820190506115ce60008301846115aa565b92915050565b6115dd816115a0565b81146115e857600080fd5b50565b6000813590506115fa816115d4565b92915050565b6000806040838503121561161757611616611510565b5b60006116258582860161155e565b9250506020611636858286016115eb565b9150509250929050565b60008115159050919050565b61165581611640565b82525050565b6000602082019050611670600083018461164c565b92915050565b60008060006060848603121561168f5761168e611510565b5b600061169d8682870161155e565b93505060206116ae8682870161155e565b92505060406116bf868287016115eb565b9150509250925092565b600060ff82169050919050565b6116df816116c9565b82525050565b60006020820190506116fa60008301846116d6565b92915050565b600060408201905061171560008301856115aa565b61172260208301846115aa565b9392505050565b60006020828403121561173f5761173e611510565b5b600061174d848285016115eb565b91505092915050565b6000806040838503121561176d5761176c611510565b5b600061177b8582860161155e565b925050602061178c8582860161155e565b9150509250929050565b7f4e487b7100000000000000000000000000000000000000000000000000000000600052602260045260246000fd5b600060028204905060018216806117dd57607f821691505b6020821081036117f0576117ef611796565b5b50919050565b7f4e487b7100000000000000000000000000000000000000000000000000000000600052601160045260246000fd5b6000611830826115a0565b915061183b836115a0565b9250828201905080821115611853576118526117f6565b5b92915050565b7f4e6f207265776172647300000000000000000000000000000000000000000000600082015250565b600061188f600a83611469565b915061189a82611859565b602082019050919050565b600060208201905081810360008301526118be81611882565b9050919050565b6118ce81611535565b82525050565b60006040820190506118e960008301856118c5565b6118f660208301846115aa565b9392505050565b7f416d6f756e74206e6f74207374616b6564000000000000000000000000000000600082015250565b6000611933601183611469565b915061193e826118fd565b602082019050919050565b6000602082019050818103600083015261196281611926565b9050919050565b6000611974826115a0565b915061197f836115a0565b9250828203905081811115611997576119966117f6565b5b92915050565b7f43616e6e6f74207769746864726177206265666f7265206d696e696d756d205360008201527f74616b696e672054696d65000000000000000000000000000000000000000000602082015250565b60006119f9602b83611469565b9150611a048261199d565b604082019050919050565b60006020820190508181036000830152611a28816119ec565b9050919050565b6000606082019050611a4460008301866115aa565b611a5160208301856115aa565b611a5e60408301846115aa565b949350505050565b6000611a71826115a0565b9150611a7c836115a0565b9250828202611a8a816115a0565b91508282048414831517611aa157611aa06117f6565b5b5092915050565b7f45524332303a2064656372656173656420616c6c6f77616e63652062656c6f7760008201527f207a65726f000000000000000000000000000000000000000000000000000000602082015250565b6000611b04602583611469565b9150611b0f82611aa8565b604082019050919050565b60006020820190508181036000830152611b3381611af7565b9050919050565b7f416c7265616479205374616b6564000000000000000000000000000000000000600082015250565b6000611b70600e83611469565b9150611b7b82611b3a565b602082019050919050565b60006020820190508181036000830152611b9f81611b63565b9050919050565b7f42616c616e6365204c6f77000000000000000000000000000000000000000000600082015250565b6000611bdc600b83611469565b9150611be782611ba6565b602082019050919050565b60006020820190508181036000830152611c0b81611bcf565b9050919050565b7f45524332303a20617070726f76652066726f6d20746865207a65726f2061646460008201527f7265737300000000000000000000000000000000000000000000000000000000602082015250565b6000611c6e602483611469565b9150611c7982611c12565b604082019050919050565b60006020820190508181036000830152611c9d81611c61565b9050919050565b7f45524332303a20617070726f766520746f20746865207a65726f20616464726560008201527f7373000000000000000000000000000000000000000000000000000000000000602082015250565b6000611d00602283611469565b9150611d0b82611ca4565b604082019050919050565b60006020820190508181036000830152611d2f81611cf3565b9050919050565b7f45524332303a20696e73756666696369656e7420616c6c6f77616e6365000000600082015250565b6000611d6c601d83611469565b9150611d7782611d36565b602082019050919050565b60006020820190508181036000830152611d9b81611d5f565b9050919050565b7f45524332303a207472616e736665722066726f6d20746865207a65726f20616460008201527f6472657373000000000000000000000000000000000000000000000000000000602082015250565b6000611dfe602583611469565b9150611e0982611da2565b604082019050919050565b60006020820190508181036000830152611e2d81611df1565b9050919050565b7f45524332303a207472616e7366657220746f20746865207a65726f206164647260008201527f6573730000000000000000000000000000000000000000000000000000000000602082015250565b6000611e90602383611469565b9150611e9b82611e34565b604082019050919050565b60006020820190508181036000830152611ebf81611e83565b9050919050565b7f45524332303a207472616e7366657220616d6f756e742065786365656473206260008201527f616c616e63650000000000000000000000000000000000000000000000000000602082015250565b6000611f22602683611469565b9150611f2d82611ec6565b604082019050919050565b60006020820190508181036000830152611f5181611f15565b9050919050565b7f45524332303a206d696e7420746f20746865207a65726f206164647265737300600082015250565b6000611f8e601f83611469565b9150611f9982611f58565b602082019050919050565b60006020820190508181036000830152611fbd81611f81565b9050919050565b7f4e487b7100000000000000000000000000000000000000000000000000000000600052601260045260246000fd5b6000611ffe826115a0565b9150612009836115a0565b92508261201957612018611fc4565b5b82820490509291505056fea264697066735822122048220064a37b376c37acd221d1c2673ba832df8342061ff76161aa7bb2a311d864736f6c63430008120033",
  "linkReferences": {},
  "deployedLinkReferences": {}
}